{
  "contractName": "HelloWorld",
  "abi": [
    {
      "constant": true,
      "inputs": [],
      "name": "getHelloMessage",
      "outputs": [
        {
          "internalType": "string",
          "name": "",
          "type": "string"
        }
      ],
      "payable": false,
      "stateMutability": "view",
      "type": "function"
    }
  ],
  "bytecode": "0x60806040526040518060400160405280600b81526020017f48656c6c6f20576f726c640000000000000000000000000000000000000000008152506000908051906020019061004f929190610062565b5034801561005c57600080fd5b50610107565b828054600181600116156101000203166002900490600052602060002090601f016020900481019282601f106100a357805160ff19168380011785556100d1565b828001600101855582156100d1579182015b828111156100d05782518255916020019190600101906100b5565b5b5090506100de91906100e2565b5090565b61010491905b808211156101005760008160009055506001016100e8565b5090565b90565b61018a806101166000396000f3fe608060405234801561001057600080fd5b506004361061002b5760003560e01c80633493b37c14610030575b600080fd5b6100386100b3565b6040518080602001828103825283818151815260200191508051906020019080838360005b8381101561007857808201518184015260208101905061005d565b50505050905090810190601f1680156100a55780820380516001836020036101000a031916815260200191505b509250505060405180910390f35b606060008054600181600116156101000203166002900480601f01602080910402602001604051908101604052809291908181526020018280546001816001161561010002031660029004801561014b5780601f106101205761010080835404028352916020019161014b565b820191906000526020600020905b81548152906001019060200180831161012e57829003601f168201915b505050505090509056fea265627a7a72315820b3516302db37b21395b8a3e65eebf5efdc30b8f38b31b9565fa0c738dc21853c64736f6c634300050c0032",
  "source": "pragma solidity ^0.5.0;\n\ncontract HelloWorld {\n  string private helloMessage = \"Hello World\";\n\n  // view - Functions can be declared view in which case they promise not to modify the state.\n  // https://solidity.readthedocs.io/en/v0.6.0/contracts.html#view-functions\n  function getHelloMessage() public view returns (string memory) {\n    return helloMessage;\n  }\n}\n\n// To run: \n// Start the truffle console (`truffle console`)\n// Call `HelloWorld.deployed().then(function(instance) { return instance });`\n\n// `HelloWorld.deployed()`\n// This points to where the smart contract is deployed\n\n// `.then(function(instance) { return instance });`\n// If it is successful, return an instance to that contract\n\n\n",
  "sourcePath": "/Users/linsy/Documents/blockchain-projects/smart-contract-hello-world/contracts/HelloWorld.sol",
  "compiler": {
    "name": "solc",
    "version": "0.5.12+commit.7709ece9.Emscripten.clang"
  },
  "schemaVersion": "3.0.20",
  "updatedAt": "2019-12-24T15:52:05.626Z",
  "networkType": "ethereum",
  "devdoc": {
    "methods": {}
  },
  "userdoc": {
    "methods": {}
  }
}